:100000000C943B000C948B000C944D000C944D0010
:100010000C944D000C944D000C944D000C944D002C
:100020000C944D000C944D000C944D000C944D001C
:100030000C944D000C944D000C944D000C944D000C
:100040000C9461000C9485010C944D000C944D00AF
:100050000C944D000C945E010C944D000C944D00DA
:100060000C944D000C944D002102280236024602E9
:1000700057025F02680211241FBECFEFD8E0DEBF37
:10008000CDBF21E0A0E0B1E001C01D92A931B207CF
:10009000E1F70E94E2010C9490020C9400008AB1F6
:1000A000806F8AB984B1836C84B98AB1837F8AB93D
:1000B0005B9A5C982E9A82E085BD81E080936E0009
:1000C00008951F920F920FB60F9211248F93809173
:1000D0000401880F809304014A9B04C080910401AD
:1000E000816003C0809104018E7F80930401809120
:1000F0000701813029F4809106018F5F809306010A
:10010000299B02C0299801C0299A8F910F900FBE98
:100110000F901F9018951F920F920FB60F921124F7
:100120000F900FBE0F901F90189584B1837D84B9F6
:1001300085B18C6285B9249A87B1807C87B98BE8B8
:1001400080937A00109209018FEF9FEF90930C013A
:1001500080930B0110920A0180EC8CBD08951092DF
:100160007A00E4E6F0E080818560808324982C9A10
:1001700088B18F6388B90895E4E6F0E080818E7FCE
:1001800080838BE880937A008FEF9FEF90930C0130
:1001900080930B0110920A012C98249A88B1807CDC
:1001A00088B980818B7F808380EC8CBD089580919D
:1001B0000901882341F120910B0130910C0137FF97
:1001C00022C020E030E0482F50E0BA01022E02C0E9
:1001D000759567950A94E2F760FF07C0F89420933D
:1001E0000B0130930C01789405C02F5F3F4F2630F0
:1001F000310559F790910B0190937C0090917A0012
:10020000906490937A0090910A019923D1F1811121
:1002100009C0F8948FEF9FEF90930C0180930B012E
:1002200078942CC020910B012F5F90E0263020F5B0
:10023000422F50E0BC01022E02C0759567950A94CA
:10024000E2F760FF10C0F89450930C0140930B014B
:10025000789480910B0180937C0080917A00806477
:1002600080937A000BC0440F551FFA01E35FFE4FE5
:10027000118210822F5FDACF20E0DACF10920A01CC
:100280000895EDE0F1E020E030E061E070E090E022
:10029000AB01022E02C0440F551F0A94E2F7DC01A5
:1002A000A423B5234A175B0711F0118210822F5F38
:1002B0003F4F32962630310559F708951F920F921D
:1002C0000FB60F9211242F938F939F93EF93FF9369
:1002D0008091780020917900E0910B01F0910C0160
:1002E000EE0FFF1FE35FFE4F90E0922B9183808320
:1002F00081E080930A01FF91EF919F918F912F915F
:100300000F900FBE0F901F9018951F920F920FB66F
:100310000F9211248F939F93EF93FF93EEB58091EB
:100320000201909103018130910549F182309105DC
:10033000B1F1892BC9F5E093010180EF8E0F863072
:1003400090F4F0E0EE0FFF1FE351FF4F80818EBD70
:10035000E0910101F0E0EE0FFF1FE351FF4F8181BB
:100360008093000109C0E23021F4809109018EBD23
:1003700001C01EBC1092000181E090E00BC0809192
:1003800000018EBD80910101813011F4E0930901DB
:1003900082E090E0909303018093020105C01EBCAF
:1003A0001092030110920201289B02C0289801C0FC
:1003B000289AFF91EF919F918F910F900FBE0F9010
:1003C0001F901895809164008A6C809364000E944D
:1003D0004F000E949500109208018FEF8093040156
:1003E0007894C1E016E0D5E004E083E0F82E92E0D6
:1003F000E92E80910701811109C0809104018111CA
:1004000013C0C0930701109206010EC0813061F441
:10041000909104019F3F41F490910601973210F0B2
:100420008093050110920701E09108018E2F90E062
:100430008730910508F069C0FC01EC5CFF4F0C941B
:100440008A022F985D985E985F985C982E9A5AC0A1
:100450002F9A5D985E985F9880910501882309F432
:1004600056C010920501E092080151C05D9A2F9884
:100470005E985F985C9A4B9BF09208018091050111
:10048000882309F444C0109205010EC05E9A2F988B
:100490005D985F9880910501882321F010920501F5
:1004A000009308014B9B33C0D093080130C05F9A82
:1004B0002F985D985E982E984B99F6CF28C02F986C
:1004C0005D985E985F985C982E9A109308011FC003
:1004D0002F985D985E985F982898299883B7817FB8
:1004E000846083BFE89A0E94AF0083B7816083BFB6
:1004F00083B7816083BF889583B78E7F83BFE89879
:100500000E94BC00C093080102C0109208010E9422
:10051000D7006FCFEE0FFF1F0590F491E02D0994E7
:04052000F894FFCF7D
:00000001FF
