:1000000009C05AC015C02BC013C012C011C010C007
:100010000FC00EC011241FBECFE9CDBF20E0A0E667
:10002000B0E001C01D92A636B207E1F74FD0BEC0C6
:10003000E7CF87B38C7F87BB87B38C6087BBC298C1
:10004000C39885E083BF82E089BF1092650010925B
:100050006200109264008FEF8093610008951F92F8
:100060000F920FB60F9211248F939F93809160008F
:100070008F5F80936000843279F480916100880FF3
:100080008093610086B39091610086958170892B81
:10009000809361001092600080916400813029F4A7
:1000A000809163008F5F809363009F918F910F9089
:1000B0000FBE0F901F9018951F920F920FB60F92C0
:1000C00011240F900FBE0F901F901895B2DF7894F7
:1000D00091E022E035E043E054E08091640081113A
:1000E00009C080916100811123C090936400109237
:1000F00063001EC0813091F480916100882319F063
:100100001092640015C080916100811111C080912E
:1001100063008A3068F0209364000AC0823041F4A2
:10012000809161008F3F21F41092640090936200EF
:10013000809165008230A9F028F4882371F1813024
:1001400039F031C0843019F1C0F0853031F12BC065
:1001500080916200882309F210926200209365006A
:10016000BCCFC29AB0994093650080916200882309
:1001700009F4B3CF109262000DC080916200882311
:1001800009F4ABCF1092620050936500A6CFC39ADA
:10019000B099A3CF30936500A0CF88B3837F88BB8D
:1001A000909365009ACF1092650097CFF894FFCF97
:00000001FF
