:100000000C9441000C94A6000C9453000C945300E3
:100010000C9453000C9453000C9453000C94530014
:100020000C9453000C9453000C9453000C94530004
:100030000C9453000C9453000C9453000C945300F4
:100040000C9475000C94BA010C9453000C9453005A
:100050000C9453000C9467010C9453000C945300BF
:100060000C9453000C945300DA0263026C02790280
:1000700083028E029502A002A802AE02AE02B60270
:10008000D30211241FBECFEFD8E0DEBFCDBF21E0E9
:10009000A0E0B1E001C01D92AB31B207E1F70E94D0
:1000A0001F020C94EC020C940000E4E6F0E0808166
:1000B0008A6C808384E085BD81E080936E005398D4
:1000C0005298549A269A8AB1806E8AB984B183680C
:1000D00084B98AB18C7F8AB98BB183608BB95C9803
:1000E0002E9A0E94B0000C948E011F920F920FB6B0
:1000F0000F9211248F9380910401880F8093040143
:100100004A9B04C080910401816003C08091040176
:100110008E7F8093040180910801813029F48091C1
:1001200007018F5F8093070180910601809106018E
:100130008F5F80930601299B02C0299801C0299AEC
:100140008F910F900FBE0F901F9018951F920F92D6
:100150000FB60F9211240F900FBE0F901F9018959D
:1001600087B1807C87B98BE880937A0010920A016E
:100170008FEF9FEF90930D0180930C0110920B0174
:10018000089510927A00E4E6F0E080818160808337
:1001900088B18F6388B90895E4E6F0E080818E7FAE
:1001A00080838BE880937A008FEF9FEF90930D010F
:1001B00080930C0110920B0188B1807C88B908955E
:1001C00080910A01882341F120910C0130910D01A9
:1001D00037FF22C020E030E0482F50E0BA01022E65
:1001E00002C0759567950A94E2F760FF07C0F8941E
:1001F00020930C0130930D01789405C02F5F3F4F81
:100200002630310559F790910C0190937C00909124
:100210007A00906490937A0090910B019923D1F128
:10022000811109C0F8948FEF9FEF90930D01809397
:100230000C0178942CC020910C012F5F90E02630A7
:1002400020F5422F50E0BC01022E02C07595679543
:100250000A94E2F760FF10C0F89450930D014093A8
:100260000C01789480910C0180937C0080917A003D
:10027000806480937A000BC0440F551FFA01E25F3F
:10028000FE4F118210822F5FDACF20E0DACF10927A
:100290000B010895EEE0F1E020E030E061E070E075
:1002A00090E0AB01022E02C0440F551F0A94E2F702
:1002B000DC01A423B5234A175B0711F011821082D9
:1002C0002F5F3F4F32962630310559F708951F9220
:1002D0000F920FB60F9211242F938F939F93EF934A
:1002E000FF938091780020917900E0910C01F091CA
:1002F0000D01EE0FFF1FE25FFE4F90E0922B918306
:10030000808381E080930B01FF91EF919F918F910A
:100310002F910F900FBE0F901F90189584B1837D81
:1003200084B985B18C6285B9249A279880EC8CBDFC
:100330000895E4E6F0E080818460808324982C9A1C
:1003400008952C98249AE4E6F0E080818B7F8083E6
:1003500080EC8CBD089580911A01882351F01F997B
:1003600002C0279804C0279A85B1807885B9109279
:100370001A0108951F920F920FB60F9211248F93B6
:100380009F93EF93FF93EEB580910201909103014B
:100390008130910589F182309105F1F1892B09F0C5
:1003A00040C0E093010180EF8E0F863090F4F0E0C2
:1003B000EE0FFF1FE251FF4F80818EBDE0910101E2
:1003C000F0E0EE0FFF1FE251FF4F818180930001AB
:1003D00010C0E23031F480910A018EBD109200010C
:1003E00008C0E33031F41EBC1092000181E080931C
:1003F0001A0181E090E00BC0809100018EBD8091D8
:100400000101813011F4E0930A0182E090E09093C1
:1004100003018093020105C01EBC109203011092DB
:100420000201289B02C0289801C0289AFF91EF91F1
:100430009F918F910F900FBE0F901F9018950E9463
:100440005500109209018FEF809304017894C1E068
:100450001CE00BE0D9E088E0F82E97E0E92E26E0DA
:10046000D22E35E0C32EBB24BA9444E0A42E53E030
:10047000952E62E0862E90910401809108019111E1
:1004800007C0811105C0C0930801109207010EC07A
:10049000813061F4909104019F3F41F490910701F4
:1004A000983110F08093050110920801E091090144
:1004B0008E2F90E08D30910508F081C0FC01EC5C3E
:1004C000FF4F0C94E6022F9A5D985E985F985C98B7
:1004D0002E9A8092090175C080910501882321F030
:1004E000109205019092090180910601813598F5DD
:1004F00068C05D9A2F985E985F98B09206015C9AEA
:10050000A09209015EC04B99C0920901809105013A
:10051000882309F456C0109205011DC05E9A2F98D9
:100520005D985F98D09209014CC0809105018823A5
:1005300021F010920501E09209014B9942C00BC0D5
:100540005F9A2F985D985E982E98F092090139C0B5
:100550004B9937C02E9AD093090133C02F985D98DC
:100560005E985F985C98009309012BC02F985D9866
:100570005E985F982898299883B7817F846083BFAD
:1005800026982E9A0E94C1000E949901E89A83B78A
:10059000816083BF83B7816083BF889583B78E7F77
:1005A00083BF10930901E8980E94A1010E94CC002A
:1005B0002E98269A10920601C093090102C010924B
:1005C00009010E94AB010E94E00055CFEE0FFF1F12
:0C05D0000590F491E02D0994F894FFCF01
:00000001FF
