:100000000BC056C017C016C015C014C02CC012C0FB
:1000100011C010C00FC00EC011241FBECFEDCDBF48
:1000200020E0A0E6B0E001C01D92A536B207E1F7DE
:1000300049D0D5C0E5CF8AB38C6F8ABB87B38F7A9E
:1000400087BB87B3886287BBC598C39882E083BFAC
:1000500089BF1092640010926100109263008FEFCC
:100060008093600008951F920F920FB60F92112493
:100070008F9380916000880F80936000B69B04C0CE
:1000800080916000816003C0809160008E7F8093CA
:10009000600080916300813029F4809162008F5F5D
:1000A000809362008F910F900FBE0F901F90189554
:1000B0001F920F920FB60F9211240F900FBE0F9048
:1000C0001F901895B8DF789491E022E035E043E086
:1000D00054E080916300811109C08091600081111A
:1000E00024C090936300109262001FC0813091F48D
:1000F00080916000882319F01092630016C08091EF
:100100006000811112C0809162008A3070F02093EB
:1001100063000BC0823049F4809160008F3F29F466
:100120001092630090936100DF9A809164008230A6
:1001300011F128F4882369F0813071F04DC08430CA
:10014000D1F150F1853009F047C0DA9A8BB3877846
:100150003CC08BB3837839C0DE9A8BB3837C8BBB76
:1001600080916100882309F4B4CF10926100DF9878
:1001700020936400AECFDD9A8BB3837A8BBBC59A94
:10018000B4994093640080916100882309F4A1CF61
:1001900010926100DF9816C0DC9A8BB383798BBB19
:1001A00080916100882309F494CF10926100DF9858
:1001B000509364008ECFDB9A8BB38B788BBBC39A42
:1001C000B49987CF3093640084CF8BBB88B3877D8D
:1001D00088BB909364007DCF109264007ACFF8942E
:0201E000FFCF4F
:00000001FF
