:100000000C9454000C94E5000C9475000C9475004D
:100010000C9475000C9475000C9475000C9475008C
:100020000C9475000C9475000C9475000C9475007C
:100030000C9475000C9475000C9475000C9475006C
:100040000C94A9000C94FD010C9475000C9475009F
:100050000C9475000C94A8010C9475000C94750018
:100060000C9475000C947500A500A300A500A500D4
:10007000A500A300A500A300A500A300A500A30060
:10008000A300A300A5005F0384028C0299029D02D5
:10009000C202CB02D602DE02F4021B0324032B03AE
:1000A0002F032F033603580311241FBECFEFD8E0D0
:1000B000DEBFCDBF84B780931E0114BE0FB6F89487
:1000C000A895809160008861809360001092600024
:1000D0000FBE21E0A0E0B1E001C01D92AE31B20739
:1000E000E1F70E9465020C947B030C940000E4E6A7
:1000F000F0E080818A6C808384E085BD81E080931C
:100100006E0021985298549A269A8AB1826E8AB9C2
:1001100084B1816884B95098589A22982A9A5C9838
:100120002E980E94F4000C94CF01F894909107014E
:10013000492F50E0FA013197EF30F10520F4EC5CE3
:10014000FF4F0C94750390930401809307017894FA
:1001500008951F920F920FB60F9211248F938091E2
:100160000501880F809305014A9B04C08091050119
:10017000816003C0809105018E7F8093050180918D
:100180000A0187FD05C080910A018F5F80930A01F3
:100190008091060187FD05C0809106018F5F8093E5
:1001A00006018091080187FD05C0809108018F5FDD
:1001B00080930801599B02C0599801C0599A8F91A8
:1001C0000F900FBE0F901F9018951F920F920FB6B1
:1001D0000F9211248F9381E080930B018F910F90E8
:1001E0000FBE0F901F90189587B1807C87B980B79C
:1001F000806880BF8BE880937A008FEF9FEF9093A9
:100200000E0180930D01089510927A00E4E6F0E06B
:1002100080818160808388B18F6388B90895E4E626
:10022000F0E080818E7F80838BE880937A008FEF6F
:100230009FEF90930E0180930D0188B1807C88B967
:10024000089580910C01882341F120910D01309196
:100250000E0137FF22C020E030E0482F50E0BA0105
:10026000022E02C0759567950A94E2F760FF07C0F9
:10027000F89420930D0130930E01789405C02F5F00
:100280003F4F2630310559F790910D0190937C0036
:1002900090917A00906490937A0090910F01992345
:1002A000D1F1811109C0F8948FEF9FEF90930E0167
:1002B00080930D0178942CC020910D012F5F90E068
:1002C000263020F5422F50E0BC01022E02C0759569
:1002D00067950A94E2F760FF10C0F89450930E01FE
:1002E00040930D01789480910D0180937C00809162
:1002F0007A00806480937A000BC0440F551FFA0186
:10030000E05FFE4F118210822F5FDACF20E0DACF5C
:1003100010920F010895E0E1F1E020E030E061E0AB
:1003200070E090E0AB01022E02C0440F551F0A940A
:10033000E2F7DC01A423B5234A175B0711F0118211
:1003400010822F5F3F4F32962630310559F70895BE
:100350001F920F920FB60F9211242F938F939F939A
:10036000EF93FF938091780020917900E0910D0147
:10037000F0910E01EE0FFF1FE05FFE4F90E0922B19
:100380009183808381E080930F01FF91EF919F9192
:100390008F912F910F900FBE0F901F90189584B1E1
:1003A000877D84B985B1886285B9249A279880ECC5
:1003B0008CBD0895E4E6F0E0808184608083249819
:1003C0002C9A08952C98249AE4E6F0E080818B7FA3
:1003D000808380EC8CBD089580911C01882351F0AE
:1003E0001F9902C0279804C0279A85B1807885B9E3
:1003F00010921C0110921D0108951F920F920FB6CA
:100400000F9211248F939F93EF93FF93EEB58091FA
:100410000201909103018130910589F182309105AB
:10042000F1F1892B09F040C0E093010180EF8E0FBC
:10043000863090F4F0E0EE0FFF1FE051FF4F808117
:100440008EBDE0910101F0E0EE0FFF1FE051FF4F84
:1004500081818093000110C0E23031F480910C0161
:100460008EBD1092000108C0E33031F41EBC109222
:10047000000181E080931C0181E090E00BC080913D
:1004800000018EBD80910101813011F4E0930C01D7
:1004900082E090E0909303018093020105C01EBCAE
:1004A00010920301109202012F9B02C02F9801C0ED
:1004B0002F9A81E080931D01FF91EF919F918F9181
:1004C0000F900FBE0F901F9018950E94770010920A
:1004D0000401109207018FEF8093050180930601BC
:1004E0008093080180930A017894D3E0CFEFE091E4
:1004F00007018E2F90E08131910508F0E4C0FC01E6
:10050000ED5BFF4F0C947503289A5F985E985D9899
:100510005C982E9882E0D8C080910501811103C0BB
:1005200083E00E9495008091060181350CF0D5C0D2
:10053000CDC010920A0184E0C7C0809105018F3FB1
:1005400009F0C4C090910A0180910401983160F0D3
:10055000823011F485E011C0863011F48DE00DC0B9
:10056000883069F48BE009C0823011F481E005C065
:10057000863081F3883019F487E00E949500C0939B
:100580000A01A4C05F9A28985E985D98C0930601FE
:100590005C9A86E099C0199B03C087E00E94950091
:1005A00080910501811192C083E08EC05E9A2898E7
:1005B0005F985D981092080188E086C080910501DF
:1005C000811105C083E00E949500C093080119992C
:1005D00005C08DE00E949500C0930801809108013C
:1005E00088320CF07CC072C028985F985E985D9845
:1005F000E89A83B7817F83BF83B7816083BF83B766
:10060000816083BF889583B78E7F83BF80910B0104
:1006100081110AC080911D01811108C080910F01D4
:10062000811106C0D3E005C0D0E003C0D1E001C015
:10063000D2E08AE049C0E898DD2311F0199902C0A0
:1006400087E042C089E040C05D9A28985F985E9834
:100650002E9A8CE039C0199939C02E983EC028983E
:100660005F985E985D985C988FE02EC028985F98A0
:100670005E985D982F98599883B7817F846083BF77
:1006800026982E9A0E9404010E94DA01E89AF894B2
:1006900080910B01811108C083B7816083BF78947A
:1006A000889583B78E7F83BF789480E10E94950000
:1006B000E8980E94E2010E940F012E98269A10925B
:1006C000060181E001C080E00E9495000E94EC01DB
:1006D0000E94210110920B010ACF8DE0F5CF89E035
:1006E0000E949500C0930801F1CFEE0FFF1F059007
:0A06F000F491E02D0994F894FFCF77
:00000001FF
