:100000000C9454000C94E7000C94F6000C94AD0290
:100010000C9475000C9475000C9475000C9475008C
:100020000C9475000C9475000C9475000C9475007C
:100030000C9475000C9475000C9475000C9475006C
:100040000C94AB000C9443020C9475000C94750056
:100050000C9475000C94C6010C9475000C947500FA
:100060000C9475000C947500A700A500A700A700CC
:10007000A700A500A700A500A700A500A700A50050
:10008000A500A500A700B703DB02E302F002F4021B
:10009000190322032D0335034B0373037C038303EE
:1000A000870387038E03B00311241FBECFEFD8E070
:1000B000DEBFCDBF84B780931F0114BE0FB6F89486
:1000C000A895809160008861809360001092600024
:1000D0000FBE21E0A0E0B1E001C01D92AF31B20738
:1000E000E1F70E94BC020C94D5030C940000E4E6F6
:1000F000F0E080818A6C808384E085BD81E080931C
:100100006E0021985298549A269A8AB1826E8AB9C2
:1001100084B1816884B98AB1867F8AB98BB18960DC
:100120008BB95C982E980E9405010C94ED01F8940F
:1001300090910701492F50E0FA013197EF30F10516
:1001400020F4EC5CFF4F0C94CF0390930401809358
:100150000701789408951F920F920FB60F92112401
:100160008F9380910501880F809305014A9B04C0FD
:1001700080910501816003C0809105018E7F80938D
:10018000050180910A0187FD05C080910A018F5FFA
:1001900080930A018091060187FD05C080910601C8
:1001A0008F5F809306018091080187FD05C08091D3
:1001B00008018F5F80930801599B02C0599801C0C4
:1001C000599A8F910F900FBE0F901F9018951F9204
:1001D0000F920FB60F9211248F9381E080930B0141
:1001E0008F910F900FBE0F901F9018951F920F9236
:1001F0000FB60F9211248F9381E0809309018F91A4
:100200000F900FBE0F901F90189587B1807C87B913
:1002100080B7806880BFEFE7F0E0808183608083F3
:10022000EEE7F0E080818D6380838DE880937A0033
:100230008FEF9FEF90930E0180930D010895109220
:100240007A00E4E6F0E080818160808388B18F638A
:1002500088B90895E4E6F0E080818E7F80838DE8A0
:1002600080937A008FEF9FEF90930E0180930D01A2
:1002700088B1807C88B9089580910C01882349F168
:1002800020910D0130910E0137FF23C020E030E0B6
:10029000482F50E0BA01022E02C0759567950A9466
:1002A000E2F760FF07C0F89420930D0130930E0130
:1002B000789405C02F5F3F4F2630310559F7909154
:1002C0000D01906490937C0090917A0090649093DB
:1002D0007A0090910F01992309F43BC0811109C064
:1002E000F8948FEF9FEF90930E0180930D01789417
:1002F0002DC020910D012F5F90E0263028F5422F70
:1003000050E0BC01022E02C0759567950A94E2F791
:1003100060FF11C0F89450930E0140930D01789442
:1003200080910D01806480937C0080917A008064CC
:1003300080937A000BC0440F551FFA01E05FFE4F17
:10034000118210822F5FD9CF20E0D9CF10920F01F8
:100350000895E0E1F1E020E030E061E070E090E05D
:10036000AB01022E02C0440F551F0A94E2F7DC01D4
:10037000A423B5234A175B0711F0118210822F5F67
:100380003F4F32962630310559F708951F920F924C
:100390000FB60F9211242F938F939F93EF93FF9398
:1003A0008091780020917900E0910D01F0910E018B
:1003B000EE0FFF1FE05FFE4F90E0922B9183808352
:1003C00081E080930F01FF91EF919F918F912F9189
:1003D0000F900FBE0F901F90189584B1877D84B940
:1003E000229885B1886285B92A9A249A279880EC48
:1003F0008CBD08951CBCE4E6F0E0808184608083BD
:1004000024982C9A08952C98249AE4E6F0E08081B0
:100410008B7F808380EC8CBD0895EBE6F0E08081DB
:1004200084608083E8E6F0E08081816080831CBC8A
:10043000E4E6F0E08081846080830895E8E6F0E0FF
:1004400080818E7F8083EBE6F0E080818B7F8083EC
:10045000E4E6F0E080818B7F808380EC8CBD0895A2
:1004600080911C01882351F01F9902C0279804C075
:10047000279A85B1807885B910921C0110921D01D0
:1004800010921E0108951F920F920FB60F92112421
:100490008F939F93EF93FF93EEB51A994DC0809180
:1004A0000201909103018130910589F1823091051B
:1004B000F1F1892B09F040C0E093010180EF8E0F2C
:1004C000863090F4F0E0EE0FFF1FE051FF4F808187
:1004D0008EBDE0910101F0E0EE0FFF1FE051FF4FF4
:1004E00081818093000110C0E23031F480910C01D1
:1004F0008EBD1092000108C0E33031F41EBC109292
:10050000000181E080931C0181E090E00BC08091AC
:1005100000018EBD80910101813011F4E0930C0146
:1005200082E090E0909303018093020105C01EBC1D
:1005300010920301109202012F9B02C02F9801C05C
:100540002F9A81E080931D01FF91EF919F918F91F0
:100550000F900FBE0F901F9018951F920F920FB61D
:100560000F9211248F9381E080931E018F910F9041
:100570000FBE0F901F9018950E94770010920401F3
:10058000109207018FEF80930501809306018093FD
:10059000080180930A017894D4E0CFEFE09107013D
:1005A0008E2F90E08131910508F0E5C0FC01ED5BF4
:1005B000FF4F0C94CF03289A5F985E985D985C98E3
:1005C0002E9882E0D9C080910501811103C083E09B
:1005D0000E9497008091060181350CF0D8C0CEC0F2
:1005E00010920A0184E0C8C0809105018F3F09F094
:1005F000C5C090910A0180910401983160F0823069
:1006000011F485E011C0863011F48DE00DC0883002
:1006100069F48BE009C0823011F481E005C08630B6
:1006200081F3883019F487E00E949700C0930A0193
:10063000A5C05F9A28985E985D98C09306015C9A61
:1006400086E09AC0199B03C087E00E9497008091C2
:100650000501811193C083E08FC05E9A28985F984E
:100660005D981092080188E087C080910501811192
:1006700005C083E00E949700C0930801199905C046
:100680008DE00E949700C093080180910801883294
:100690000CF07FC073C028985F985E985D98E89AC8
:1006A00083B7817F826083BF83B7816083BF83B755
:1006B000816083BF889583B78E7F83BF80910B0154
:1006C00081110AC080911D01811108C080910F0124
:1006D000811106C0D4E005C0D0E003C0D2E001C063
:1006E000D3E08AE049C0E898DD2311F0199902C0EF
:1006F00087E042C089E040C05D9A28985F985E9884
:100700002E9A8CE039C0199939C02E9840C028988B
:100710005F985E985D985C988FE02EC028985F98EF
:100720005E985D982F98599883B7817F846083BFC6
:1007300026982E9A0E941F010E94FA01E89AF894C6
:1007400080910B01811108C083B7816083BF7894C9
:10075000889583B78E7F83BF789480E10E9497004D
:10076000E8980E9403020E942A012E98269A10926D
:10077000060181E001C080E00E9497000E943002E3
:100780000E943C0110920B011092090107CF8DE0ED
:10079000F3CF89E00E949700C0930801EFCFEE0FDE
:0E07A000FF1F0590F491E02D0994F894FFCF0F
:00000001FF
