:100000000C9454000C94E7000C9475000C9475004B
:100010000C9475000C9475000C9475000C9475008C
:100020000C9475000C9475000C9475000C9475007C
:100030000C9475000C9475000C9475000C9475006C
:100040000C94AB000C94FF010C9475000C9475009B
:100050000C9475000C94AA010C9475000C94750016
:100060000C9475000C947500A700A500A700A700CC
:10007000A700A500A700A500A700A500A700A50050
:10008000A500A500A700610386028E029B029F02C5
:10009000C402CD02D802E002F6021D0326032D039E
:1000A0003103310338035A0311241FBECFEFD8E0C8
:1000B000DEBFCDBF84B780931D0114BE0FB6F89488
:1000C000A895809160008861809360001092600024
:1000D0000FBE21E0A0E0B1E001C01D92AD31B2073A
:1000E000E1F70E9467020C947D030C940000E4E6A3
:1000F000F0E080818A6C808384E085BD81E080931C
:100100006E0053985298549A269A8AB1806E8AB992
:1001100084B1836884B98AB18C7F8AB98BB18360DA
:100120008BB95C982E980E94F6000C94D101F8943B
:1001300090910701492F50E0FA013197EF30F10516
:1001400020F4EC5CFF4F0C947703909304018093B0
:100150000701789408951F920F920FB60F92112401
:100160008F9380910501880F809305014A9B04C0FD
:1001700080910501816003C0809105018E7F80938D
:1001800005018091090187FD05C0809109018F5FFC
:10019000809309018091060187FD05C080910601C9
:1001A0008F5F809306018091080187FD05C08091D3
:1001B00008018F5F80930801299B02C0299801C024
:1001C000299A8F910F900FBE0F901F9018951F9234
:1001D0000F920FB60F9211248F9381E080930A0142
:1001E0008F910F900FBE0F901F90189587B1807C54
:1001F00087B980B7806880BF8BE880937A008FEFE3
:100200009FEF90930D0180930C01089510927A0056
:10021000E4E6F0E080818160808388B18F6388B9F3
:100220000895E4E6F0E080818E7F80838BE8809300
:100230007A008FEF9FEF90930D0180930C0188B1AE
:10024000807C88B9089580910B01882341F1209129
:100250000C0130910D0137FF22C020E030E0482F23
:1002600050E0BA01022E02C0759567950A94E2F734
:1002700060FF07C0F89420930C0130930D0178942F
:1002800005C02F5F3F4F2630310559F790910C0183
:1002900090937C0090917A00906490937A00909172
:1002A0000E019923D1F1811109C0F8948FEF9FEFCE
:1002B00090930D0180930C0178942CC020910C0137
:1002C0002F5F90E0263020F5422F50E0BC01022E37
:1002D00002C0759567950A94E2F760FF10C0F89424
:1002E00050930D0140930C01789480910C01809300
:1002F0007C0080917A00806480937A000BC0440F68
:10030000551FFA01E15FFE4F118210822F5FDACF95
:1003100020E0DACF10920E010895EFE0F1E020E046
:1003200030E061E070E090E0AB01022E02C0440FCB
:10033000551F0A94E2F7DC01A423B5234A175B0793
:1003400011F0118210822F5F3F4F32962630310517
:1003500059F708951F920F920FB60F9211242F9301
:100360008F939F93EF93FF93809178002091790072
:10037000E0910C01F0910D01EE0FFF1FE15FFE4FC8
:1003800090E0922B9183808381E080930E01FF9116
:10039000EF919F918F912F910F900FBE0F901F9013
:1003A000189584B1837D84B985B18C6285B9249A0E
:1003B000279880EC8CBD0895E4E6F0E080818460AD
:1003C000808324982C9A08952C98249AE4E6F0E0EF
:1003D00080818B7F808380EC8CBD089580911B0190
:1003E000882351F01F9902C0279804C0279A85B12D
:1003F000807885B910921B0110921C0108951F92FC
:100400000F920FB60F9211248F939F93EF93FF9348
:10041000EEB580910201909103018130910589F13F
:1004200082309105F1F1892B09F040C0E093010180
:1004300080EF8E0F863090F4F0E0EE0FFF1FE15159
:10044000FF4F80818EBDE0910101F0E0EE0FFF1FB4
:10045000E151FF4F81818093000110C0E23031F4FF
:1004600080910B018EBD1092000108C0E33031F481
:100470001EBC1092000181E080931B0181E090E09E
:100480000BC0809100018EBD80910101813011F47B
:10049000E0930B0182E090E09093030180930201CE
:1004A00005C01EBC1092030110920201289B02C0DD
:1004B000289801C0289A81E080931C01FF91EF9158
:1004C0009F918F910F900FBE0F901F9018950E94D3
:1004D000770010920401109207018FEF80930501BD
:1004E0008093060180930801809309017894D3E0FA
:1004F000CFEFE09107018E2F90E08131910508F058
:10050000E4C0FC01ED5BFF4F0C9477032F9A5D98DC
:100510005E985F985C982E9882E0D8C08091050123
:10052000811103C083E00E9497008091060181350C
:100530000CF0D5C0CDC01092090184E0C7C08091F5
:1005400005018F3F09F0C4C0909109018091040119
:10055000983160F0823011F485E011C0863011F4DA
:100560008DE00DC0883069F48BE009C0823011F451
:1005700081E005C0863081F3883019F487E00E945D
:100580009700C0930901A4C05D9A2F985E985F9868
:10059000C09306015C9A86E099C04B9B03C087E03C
:1005A0000E94970080910501811192C083E08EC066
:1005B0005E9A2F985D985F981092080188E086C037
:1005C00080910501811105C083E00E949700C093CE
:1005D00008014B9905C08DE00E949700C093080167
:1005E0008091080188320CF07CC072C02F985D9811
:1005F0005E985F98E89A83B7817F83BF83B78160F5
:1006000083BF83B7816083BF889583B78E7F83BFA5
:1006100080910A0181110AC080911C01811108C0DA
:1006200080910E01811106C0D3E005C0D0E003C067
:10063000D1E001C0D2E08AE049C0E898DD2311F0A2
:100640004B9902C087E042C089E040C05F9A2F9872
:100650005D985E982E9A8CE039C04B9939C02E98DF
:100660003EC02F985D985E985F985C988FE02EC092
:100670002F985D985E985F982898299883B7817F16
:10068000846083BF26982E9A0E9406010E94DC0196
:10069000E89AF89480910A01811108C083B78160BB
:1006A00083BF7894889583B78E7F83BF789480E1E9
:1006B0000E949700E8980E94E4010E9411012E9880
:1006C000269A1092060181E001C080E00E94970006
:1006D0000E94EE010E94230110920A010ACF8DE0D0
:1006E000F5CF89E00E949700C0930801F1CFEE0F8B
:0E06F000FF1F0590F491E02D0994F894FFCFC0
:00000001FF
