:100000000C9454000C94EE000C9480000C9480002E
:100010000C9480000C9480000C9480000C94800060
:100020000C9480000C9480000C9480000C94800050
:100030000C9480000C9480000C9480000C94800040
:100040000C94B2000C94FD010C9480000C94800080
:100050000C9480000C9492010C9480000C9480000D
:100060000C9480000C948000AE00AC00AE00AE009A
:10007000AE00AC00AE00AC00AE00AC00AE00AC0018
:10008000AC00AC00AE005903780280028D029102F0
:10009000B602BF02CA02D202E80212031D03240301
:1000A000280328032F03520311241FBECFEFD8E0EB
:1000B000DEBFCDBF84B780931D0114BE0FB6F89488
:1000C000A895809160008861809360001092600024
:1000D0000FBE11E0A0E0B1E0EEEEF6E002C0059048
:1000E0000D92A230B107D9F721E0A2E0B1E001C042
:1000F0001D92AD31B207E1F70E9459020C947503CD
:100100000C940000E4E6F0E080818A6C808384E057
:1001100085BD81E080936E0021985298549A269A6A
:100120008AB1836E8AB984B1816884B953985B9A25
:100130005C982E980E94FD000C94B701F894909161
:100140000701492F50E0FA013197EF30F10520F413
:10015000EC5CFF4F0C946F039093040180930701B4
:10016000789408951F920F920FB60F9211248F93D7
:1001700080910501880F809305014A9B04C08091FE
:100180000501816003C0809105018E7F8093050188
:100190008091090187FD05C0809109018F5F8093DF
:1001A00009018091060187FD05C0809106018F5FDE
:1001B000809306018091080187FD05C080910801A8
:1001C0008F5F80930801599B02C0599801C0599ACA
:1001D0008F910F900FBE0F901F9018951F920F9246
:1001E0000FB60F9211248F9381E080930A018F91B3
:1001F0000F900FBE0F901F90189587B1807C87B924
:1002000080B7806880BFEFE7F0E080818360808303
:10021000EEE7F0E080818F6380838DE880937A0041
:100220008FEF80930C01089510927A00E4E6F0E0DD
:1002300080818160808388B18F6388B9089588B197
:10024000807C88B9E4E6F0E080818E7F80838DE851
:1002500080937A008FEF80930C01089520910B0119
:1002600080910C0187FF1BC02223C9F080E090E041
:10027000422F50E0BA01082E02C0759567950A9486
:10028000E2F760FF03C080930C0104C00196863042
:10029000910581F780910C01806480937C008091AE
:1002A0000D01882339F1211104C08FEF80930C01D7
:1002B0001EC080910C01082E000C990B019630E0B5
:1002C000863091058CF4A901082E02C055954795FA
:1002D0000A94E2F740FF06C080930C01806480938B
:1002E0007C0005C00196ECCF80E090E0E9CF109251
:1002F0000D010895EEE0F1E040E050E0822F90E043
:100300009C01042E02C0359527950A94E2F720FD42
:1003100002C0118210824F5F5F4F32964630510506
:1003200079F708951F920F920FB60F9211242F9311
:100330008F939F93EF93FF938091780020917900A2
:10034000E0910C01EE0FFF0BE25FFE4F90E0922B6D
:100350009183808381E080930D01FF91EF919F91C4
:100360008F912F910F900FBE0F901F90189584B111
:10037000877D84B9229885B1886285B92A9A249AA2
:10038000279880EC8CBD08951CBCE4E6F0E08081E9
:100390008460808324982C9A08952C98249AE4E60B
:1003A000F0E080818B7F808310921C0180EC8CBDFB
:1003B00008951CBCE4E6F0E0808184608083589856
:1003C0000895E4E6F0E080818B7F808310921C0129
:1003D00080EC8CBD589A089580911A01882351F0C1
:1003E0001F9902C0279804C0279A85B1807885B9E3
:1003F00010921A0110921B0108951F920F920FB6CE
:100400000F9211248F93EF93FF93EEB51A9941C089
:1004100080911C01813089F130F08230D1F51EBC11
:1004200010921C0136C0E093030180EF8E0F8630DE
:1004300090F4F0E0EE0FFF1FE251FF4F80818EBD80
:10044000E0910301F0E0EE0FFF1FE251FF4F8181C9
:100450008093020110C0E23031F480910B018EBD17
:100460001092020108C0E33031F41EBC1092020168
:1004700081E080931A0181E00AC0809102018EBD63
:1004800080910301813011F4E0930B0182E08093AD
:100490001C012F9B02C02F9801C02F9A81E08093EE
:1004A0001B01FF91EF918F910F900FBE0F901F9046
:1004B00018950E94820010920401109207018FEF9C
:1004C00080930501809306018093080180930901C0
:1004D0007894D3E0CFEFE09107018E2F90E0813147
:1004E000910508F0EAC0FC01ED5BFF4F0C946F032F
:1004F000289A5F985E985D985C982E9882E0DEC09E
:1005000080910501811103C083E00E949E008091CB
:10051000060181350CF0DBC0D3C01092090184E0E4
:10052000CDC0809105018F3F09F0CAC090910901AB
:1005300080910401983160F0823011F485E011C09F
:10054000863011F48DE00DC0883069F48BE009C06D
:10055000823011F481E005C0863081F3883019F4CF
:1005600087E00E949E00C0930901AAC05F9A289864
:100570005E985D98C09306015C9A86E09FC0199BC7
:1005800003C087E00E949E0080910501811198C000
:1005900083E094C05E9A28985F985D981092080155
:1005A00088E08CC080910501811105C083E00E9424
:1005B0009E00C0930801199905C08DE00E949E001D
:1005C000C09308018091080188320CF082C078C085
:1005D00028985F985E985D98E89A0E94D90183B741
:1005E000817F826083BF83B7816083BF83B781606F
:1005F00083BF889583B78E7F83BF80910A01811165
:100600000AC080911B01811108C080910D018111E8
:1006100006C0D3E005C0D0E003C0D1E001C0D2E005
:100620008AE04CC0D23021F4199B02C089E046C058
:10063000E8980E94E10187E041C05D9A28985F98A0
:100640005E982E9A8CE03AC019993AC02E983FC015
:1006500028985F985E985D985C988FE02FC02898E6
:100660005F985E985D982F985998589883B7817FC6
:10067000846083BF26982E9A0E9414010E94C401B0
:10068000E89AF89480910A01811108C083B78160CB
:1006900083BF7894889583B78E7F83BF789480E1F9
:1006A0000E949E00E8980E94CD010E941F012E9892
:1006B000269A1092060181E001C080E00E949E000F
:1006C0000E94EC010E942E0110920A0104CF8DE0DD
:1006D000F5CF89E00E949E00C0930801F1CFEE0F94
:0E06E000FF1F0590F491E02D0994F894FFCFD0
:0206EE008D007D
:00000001FF
