:100000000C943B000C948A000C944D000C944D0011
:100010000C944D000C944D000C944D000C944D002C
:100020000C944D000C944D000C944D000C944D001C
:100030000C944D000C944D000C944D000C944D000C
:100040000C9460000C9457010C944D000C944D00DE
:100050000C944D000C9430010C944D000C944D0008
:100060000C944D000C944D00E601EE01FD010E02D2
:100070001C022702310211241FBECFEFD8E0DEBFE1
:10008000CDBF21E0A0E0B1E001C01D92A631B207D2
:10009000E1F70E94A7010C9459020C9400008AB168
:1000A000806F8AB984B1836C84B98AB1837F8AB93D
:1000B0005C982E9882E085BD81E080936E00089563
:1000C0001F920F920FB60F9211248F93809101010E
:1000D000880F809301014A9B04C0809101018160D7
:1000E00003C0809101018E7F809301018091040102
:1000F000813029F4809103018F5F809303012F9B4E
:1001000002C02F9801C02F9A8F910F900FBE0F90B1
:100110001F9018951F920F920FB60F9211240F90F7
:100120000FBE0F901F90189584B1837D84B985B15F
:100130008C6285B9249A8BE880937A00109206012C
:100140008FEF9FEF909309018093080110920701B0
:1001500080EC8CBD10920B01089510927A00E4E6B9
:10016000F0E08081856080830895E4E6F0E080819E
:100170008E7F80838BE880937A008FEF9FEF909340
:100180000901809308011092070180818B7F808391
:1001900080EC8CBD089580910601882329F180911F
:1001A00008019091090197FF1FC080E090E0209125
:1001B000060130E0082E02C0359527950A94E2F733
:1001C00020FF05C0809308019093090104C00196A7
:1001D0008530910561F78091080180937C008091C2
:1001E0007A00806480937A0080910701882389F1E6
:1001F00080910601811107C08FEF9FEF9093090155
:100200008093080124C0809108018F5F853090F4AD
:1002100020910601482F50E030E0082E02C03595AD
:1002200027950A94E2F720FFF0CF509309014093FD
:10023000080104C0853011F480E0EACF8091080104
:1002400080937C0080917A00806480937A00109281
:10025000070180910B01833011F410920B01089576
:100260001F920F920FB60F9211242F938F939F938B
:10027000EF93FF938091780020917900E09108013D
:10028000F0910901EE0FFF1FE45FFE4F90E0922B0B
:100290009183808381E080930701FF91EF919F918B
:1002A0008F912F910F900FBE0F901F9018951F9256
:1002B0000F920FB60F9211248F939F93EF93FF939A
:1002C0008EB590910B01992319F0913031F132C024
:1002D00080930A0180910A018031C0F080910A0167
:1002E0008531A0F4E0910A01F0E0EE0FFF1FE45128
:1002F000FF4F80818EBDE0910A01F0E0EE0FFF1FFD
:10030000E451FF4F81818093000105C080910A0173
:100310001EBC1092000181E00AC090910A01913048
:1003200011F480930601809100018EBD82E08093DC
:100330000B0104C083E080930B011EBCFF91EF9181
:100340009F918F910F900FBE0F901F9018958091E5
:1003500064008A6C809364000E944F000E949400A5
:10036000109205018FEF809301017894C1E016E0AF
:10037000D5E004E083E0F82E92E0E92E80910401BC
:10038000811109C080910101811113C0C093040142
:10039000109203010EC0813061F4909101019F3FE2
:1003A00041F490910301973210F080930201109272
:1003B0000401E09105018E2F90E08730910508F04F
:1003C0006DC0FC01EC5CFF4F0C9453025D985E988D
:1003D0005F98289829985C982E985DC05D9A5E98E1
:1003E0005F982898299880910201882309F458C0C1
:1003F00010920201E092050153C05E9A5D985F98E9
:10040000289829985C9A4B99F092050180910201F5
:10041000882309F445C01092020116C05F9A5D98C6
:100420005E9828982998809102018823C9F110923A
:1004300002010093050134C0289A5D985E985F9888
:1004400029982E9A4B992CC0D093050129C0299A3E
:100450005D985E985F9828985C982E981093050197
:100460001FC02F985D985E985F982898299883B749
:10047000817F846083BFE89A0E94AD0083B781606A
:1004800083BF83B7816083BF889583B78E7F83BF27
:10049000E8980E94B500C093050102C010920501C2
:1004A0000E94CB006BCFEE0FFF1F0590F491E02D63
:0604B0000994F894FFCF4F
:00000001FF
