:100000000C943B000C9491000C944D000C944D000A
:100010000C944D000C944D000C944D000C944D002C
:100020000C944D000C944D000C944D000C944D001C
:100030000C944D000C944D000C944D000C944D000C
:100040000C9467000C949A010C944D000C944D0094
:100050000C944D000C9473010C944D000C944D00C5
:100060000C944D000C944D003E0245025502650271
:1000700076027E02860211241FBECFEFD8E0DEBFDB
:10008000CDBF21E0A0E0B1E001C01D92AA31B207CE
:10009000E1F70E94FF010C94B2020C940000539807
:1000A0005298549A269A8AB1806E8AB984B183682C
:1000B00084B98AB18C7F8AB98BB183608BB95C9823
:1000C0002E9A84E085BD81E080936E0008951F9292
:1000D0000F920FB60F9211248F9380910401880F15
:1000E000809304014A9B04C080910401816003C095
:1000F000809104018E7F80930401809107018130FB
:1001000029F4809106018F5F80930601299B02C02C
:10011000299801C0299A8F910F900FBE0F901F90C0
:1001200018951F920F920FB60F9211240F900FBEC9
:100130000F901F90189584B1837D84B985B18C622E
:1001400085B9249A87B1807C87B927988BE88093FA
:100150007A00109209018FEF9FEF90930D01809329
:100160000C0110920B0180EC8CBD089510927A0066
:10017000E4E6F0E080818560808324982C9A88B141
:100180008F6388B90895E4E6F0E080818E7F8083F4
:100190008BE880937A008FEF9FEF90930D0180930F
:1001A0000C0110920B012C98249A88B1807C88B99C
:1001B00080818B7F808380EC8CBD089580910A01C3
:1001C000882351F01F9902C0279804C0279A85B14F
:1001D000807885B910920A0180910901882341F144
:1001E00020910C0130910D0137FF22C020E030E05A
:1001F000482F50E0BA01022E02C0759567950A9407
:10020000E2F760FF07C0F89420930C0130930D01D2
:10021000789405C02F5F3F4F2630310559F79091F4
:100220000C0190937C0090917A00906490937A00F6
:1002300090910B019923D1F1811109C0F8948FEFAE
:100240009FEF90930D0180930C0178942CC0209126
:100250000C012F5F90E0263020F5422F50E0BC01CA
:10026000022E02C0759567950A94E2F760FF10C0F0
:10027000F89450930D0140930C01789480910C01F7
:1002800080937C0080917A00806480937A000BC018
:10029000440F551FFA01E25FFE4F118210822F5F5B
:1002A000DACF20E0DACF10920B010895EEE0F1E012
:1002B00020E030E061E070E090E0AB01022E02C08F
:1002C000440F551F0A94E2F7DC01A423B5234A1713
:1002D0005B0711F0118210822F5F3F4F329626305C
:1002E000310559F708951F920F920FB60F921124FE
:1002F0002F938F939F93EF93FF938091780020919A
:100300007900E0910C01F0910D01EE0FFF1FE25F0B
:10031000FE4F90E0922B9183808381E080930B01CC
:10032000FF91EF919F918F912F910F900FBE0F90A2
:100330001F9018951F920F920FB60F9211248F9352
:100340009F93EF93FF93EEB580910201909103018B
:100350008130910589F182309105F1F1892B09F005
:1003600040C0E093010180EF8E0F863090F4F0E002
:10037000EE0FFF1FE251FF4F80818EBDE091010122
:10038000F0E0EE0FFF1FE251FF4F818180930001EB
:1003900010C0E23031F4809109018EBD109200014D
:1003A00008C0E33031F41EBC1092000181E080935C
:1003B0000A0181E090E00BC0809100018EBD809128
:1003C0000101813011F4E093090182E090E0909303
:1003D00003018093020105C01EBC1092030110921C
:1003E0000201289B02C0289801C0289AFF91EF9132
:1003F0009F918F910F900FBE0F901F901895809135
:1004000064008A6C809364000E944F000E949B00ED
:10041000109208018FEF809304017894C1E016E0F8
:10042000D5E004E083E0F82E92E0E92E8091070108
:10043000811109C080910401811113C0C09307018B
:10044000109206010EC0813061F4909104019F3F2B
:1004500041F4909106019A3110F0809305011092B9
:100460000701E09108018E2F90E08730910508F098
:100470006EC0FC01EC5CFF4F0C94AC022F985D98B1
:100480005E985F985C982E9A5FC02F9A5D985E98F0
:100490005F985C982E9A80910501882309F459C0D1
:1004A00010920501E092080154C05D9A2F985E9861
:1004B0005F985C9A4B99F09208018091050188231E
:1004C00009F447C0109205010EC05E9A2F985D98FE
:1004D0005F9880910501882321F010920501009317
:1004E00008014B9936C0D093080133C05F9A2F980A
:1004F0005D985E982E984B9BF6CF2BC02F985D98F9
:100500005E985F985C981093080123C02F985D98BF
:100510005E985F982898299883B7817F846083BF0D
:10052000E89A26982E9A0E94B60083B7816083BF0E
:1005300083B7816083BF889583B78E7F83BFE89838
:100540000E94C3002E98269AC093080102C0109200
:1005500008010E94DE006ACFEE0FFF1F0590F491A4
:08056000E02D0994F894FFCF8F
:00000001FF
