:1000000012C061C01EC01DC01CC01BC032C019C0C0
:1000100018C017C016C015C095C09BC0A7C0B6C0F9
:10002000C3C0CCC0D5C011241FBECFEDCDBF20E0D2
:10003000A0E6B0E001C01D92A536B207E1F74DD0B1
:10004000E4C0DECF8AB38D6F8ABB87B38F7A87BB5C
:1000500087B3886287BBC598C398089582E083BF41
:1000600089BF10926100109263008FEF809360004F
:1000700008951F920F920FB60F9211248F938091C3
:100080006000880F80936000B69B04C08091600080
:10009000816003C0809160008E7F809360008091BA
:1000A0006300813029F4809162008F5F8093620049
:1000B000CF9B02C0DF9801C0DF9A8F910F900FBED7
:1000C0000F901F9018951F920F920FB60F92112448
:1000D0000F900FBE0F901F901895B4DFBFDF1092E6
:1000E0006400789421E046E035E054E063E072E09B
:1000F0008091630081110AC080916000811115C058
:100100002093630010926200D89A0FC0813069F486
:10011000909160009F3F49F4D898909162009A3086
:1001200010F08093610010926300E09164008E2FC4
:1001300090E08730910508F065C0E82FF92FE45F63
:10014000FF4F09948BB383788BBB88B3877D88BBC3
:1001500056C0DE9A8BB3837C8BBB80916100882371
:1001600039F21092610070936400C2CFDD9A8BB3B4
:10017000837A8BBBC59AB4996093640080916100C7
:10018000882309F4B5CF1092610015C0DC9A8BB3B7
:1001900083798BBB80916100882309F4A9CF1092E9
:1001A000610050936400A4CFDB9A8BB38B788BBB38
:1001B000C39AB4999DCF309364009ACFDA9A8BB3E7
:1001C00087788BBB88B3877D88BB4093640090CFD2
:1001D0008BB382708BBB85B7806185BF8BB7806422
:1001E0008BBF85B7806285BF85B7806285BF8895E4
:1001F00085B78F7D85BF8BB78F7B8BBFDA9A2093B6
:0E020000640076CF1092640073CFF894FFCFA5
:00000001FF
