:100000000C9443000C94D9000C9464000C9464008C
:100010000C9464000C9464000C9464000C946400D0
:100020000C9464000C9464000C9464000C946400C0
:100030000C9464000C9464000C9464000C946400B0
:100040000C949D000C94F1010C9464000C946400D9
:100050000C9464000C949C010C9464000C94640057
:100060000C9464000C9464004A0392029A02A90260
:10007000B202BF02C702DF0206030F0316031A0310
:100080001A032103430311241FBECFEFD8E0DEBFC4
:10009000CDBF84B780931F0114BE0FB6F894A89506
:1000A00080916000886180936000109260000FBEB4
:1000B00021E0A0E0B1E001C01D92AF31B207E1F74D
:1000C0000E9459020C9466030C940000E4E6F0E0F0
:1000D00080818A6C808384E085BD81E080936E009E
:1000E00053985298549A269A8AB1806E8AB984B1EC
:1000F000836884B98AB18C7F8AB98BB183608BB9EC
:100100005C982E980E94E8000C94C301F89490919A
:100110000A01953071F028F4913059F0933039F498
:1001200008C0993031F09D3021F0973011F0909354
:10013000040180930A01789408951F920F920FB6DC
:100140000F9211248F9380910501880F80930501F0
:100150004A9B04C080910501816003C08091050124
:100160008E7F8093050180910901813029F480916F
:1001700008018F5F809308018091070187FD05C00A
:10018000809107018F5F8093070180910B0187FDAC
:1001900005C080910B018F5F80930B01299B02C0EA
:1001A000299801C0299A8F910F900FBE0F901F9030
:1001B00018951F920F920FB60F9211248F9381E022
:1001C00080930C018F910F900FBE0F901F90189588
:1001D00087B1807C87B980B7806880BF8BE88093C7
:1001E0007A008FEF9FEF90930F0180930E01089597
:1001F00010927A00E4E6F0E080818160808388B12B
:100200008F6388B90895E4E6F0E080818E7F808373
:100210008BE880937A008FEF9FEF90930F0180938C
:100220000E0188B1807C88B9089580910D018823E2
:1002300041F120910E0130910F0137FF22C020E0E3
:1002400030E0482F50E0BA01022E02C07595679544
:100250000A94E2F760FF07C0F89420930E013093F0
:100260000F01789405C02F5F3F4F2630310559F7B5
:1002700090910E0190937C0090917A0090649093FD
:100280007A00909110019923D1F1811109C0F8945D
:100290008FEF9FEF90930F0180930E0178942CC005
:1002A00020910E012F5F90E0263020F5422F50E084
:1002B000BC01022E02C0759567950A94E2F760FFB3
:1002C00010C0F89450930F0140930E0178948091E0
:1002D0000E0180937C0080917A00806480937A0084
:1002E0000BC0440F551FFA01EF5EFE4F11821082C2
:1002F0002F5FDACF20E0DACF109210010895E1E10C
:10030000F1E020E030E061E070E090E0AB01022E2F
:1003100002C0440F551F0A94E2F7DC01A423B52361
:100320004A175B0711F0118210822F5F3F4F329600
:100330002630310559F708951F920F920FB60F928C
:1003400011242F938F939F93EF93FF9380917800C5
:1003500020917900E0910E01F0910F01EE0FFF1F47
:10036000EF5EFE4F90E0922B9183808381E080933B
:100370001001FF91EF919F918F912F910F900FBEE0
:100380000F901F90189584B1837D84B985B18C62DC
:1003900085B9249A279880EC8CBD0895E4E6F0E0B6
:1003A00080818460808324982C9A08952C98249AC4
:1003B000E4E6F0E080818B7F808380EC8CBD089543
:1003C00080911D01882351F01F9902C0279804C015
:1003D000279A85B1807885B910921D0110921E016F
:1003E00008951F920F920FB60F9211248F939F932F
:1003F000EF93FF93EEB5809102019091030181305C
:10040000910589F182309105F1F1892B09F040C005
:10041000E093010180EF8E0F863090F4F0E0EE0F54
:10042000FF1FEF50FF4F80818EBDE0910101F0E092
:10043000EE0FFF1FEF50FF4F81818093000110C02E
:10044000E23031F480910D018EBD1092000108C0A0
:10045000E33031F41EBC1092000181E080931D0155
:1004600081E090E00BC0809100018EBD8091010180
:10047000813011F4E0930D0182E090E0909303014C
:100480008093020105C01EBC10920301109202016C
:10049000289B02C0289801C0289A81E080931E0101
:1004A000FF91EF919F918F910F900FBE0F901F9032
:1004B00018950E9466001092040110920A018FEFB5
:1004C0008093050180930B017894C3E011E0DFEF86
:1004D0009091050180910901911107C0811105C01A
:1004E000109309011092080110C0813071F410922C
:1004F0000B01909105019F3F41F4909108019831C3
:1005000010F08093060110920901E0910A018E2FEC
:1005100090E08F30910508F0C1C0FC01EC5CFF4F0A
:100520000C9460032F9A5D985E985F985C982E9863
:1005300082E0B5C080910601882329F0109206015F
:1005400083E00E9486008091070181350CF0B0C0E5
:10055000A8C05D9A2F985E985F98D09307015C9A27
:1005600084E09DC04B9B03C085E00E948600809183
:100570000601882309F495C01092060199C05E9A7D
:100580002F985D985F9810920B0186E088C080914B
:100590000601882339F01092060189E00E94860046
:1005A000D0930B014B9905C08BE00E948600D0933D
:1005B0000B0180910B0188320CF07CC072C02F9827
:1005C0005D985E985F98E89A83B7817F83BF83B711
:1005D000816083BF83B7816083BF889583B78E7F37
:1005E00083BF80910C0181110AC080911E0181118D
:1005F00008C080911001811106C0C3E005C0C0E0B1
:1006000003C0C1E001C0C2E088E049C0E898CC2343
:1006100011F04B9902C085E042C087E040C05F9A6C
:100620002F985D985E982E9A8AE039C04B9939C010
:100630002E983EC02F985D985E985F985C988DE0EC
:100640002EC02F985D985E985F982898299883B758
:10065000817F846083BF26982E9A0E94F8000E94B2
:10066000CE01E89AF89480910C01811108C083B7FB
:10067000816083BF7894889583B78E7F83BF789499
:100680008EE00E948600E8980E94D6010E94030135
:100690002E98269A1092070181E001C080E00E9406
:1006A00086000E94E0010E94150110920C0110CFFB
:1006B0008BE0F5CF87E00E948600D0930B01F1CF4D
:1006C000EE0FFF1F0590F491E02D0994F894FFCFF1
:00000001FF
