:100000000C9454000C94E2000C9475000C94750050
:100010000C9475000C9475000C9475000C9475008C
:100020000C9475000C9475000C9475000C9475007C
:100030000C9475000C9475000C9475000C9475006C
:100040000C94AB000C94FA010C9475000C947500A0
:100050000C9475000C94A5010C9475000C9475001B
:100060000C9475000C947500A700A500A700A700CC
:10007000A700A500A700A500A700A500A700A50050
:10008000A500A500A70039037C0280028D02910221
:10009000B602BB02C602CA02E00203030C030F034E
:1000A000130313031603320311241FBECFEFD8E04E
:1000B000DEBFCDBF84B78093210114BE0FB6F89484
:1000C000A895809160008861809360001092600024
:1000D0000FBE21E0A0E0B1E001C01D92A132B20745
:1000E000E1F70E945D020C9455030C940000E4E6D5
:1000F000F0E080818A6C808384E085BD81E080931C
:100100006E0053985298549A269A8AB18C718AB983
:100110008BB1836E8BB984B18C7F84B985B18360D8
:1001200085B95C982E980E94F1000C94CC01F8944B
:1001300090910701492F50E0FA013197EF30F10516
:1001400020F4EC5CFF4F0C944F03909304018093D8
:100150000701789408951F920F920FB60F92112401
:100160008F9380910501880F809305014A9B04C0FD
:1001700080910501816003C0809105018E7F80938D
:1001800005018091090187FD05C0809109018F5FFC
:10019000809309018091060187FD05C080910601C9
:1001A0008F5F809306018091080187FD05C08091D3
:1001B00008018F5F809308018F910F900FBE0F9001
:1001C0001F9018951F920F920FB60F9211248F93C4
:1001D00081E080930A018F910F900FBE0F901F90C6
:1001E000189587B1807C87B980B7806880BF8BE81D
:1001F00080937A008FEF9FEF90930D0180930C0115
:10020000089510927A00E4E6F0E0808181608083B6
:1002100088B18F6388B90895E4E6F0E080818E7F2D
:1002200080838BE880937A008FEF9FEF90930D018E
:1002300080930C0188B1807C88B9089580910B016E
:10024000882341F120910C0130910D0137FF22C02C
:1002500020E030E0482F50E0BA01022E02C0759530
:1002600067950A94E2F760FF07C0F89420930C01A9
:1002700030930D01789405C02F5F3F4F2830310532
:1002800059F790910C0190937C0090917A009064C2
:1002900090937A0090910E019923D1F1811109C0B8
:1002A000F8948FEF9FEF90930D0180930C01789459
:1002B0002CC020910C012F5F90E0283020F5422FB8
:1002C00050E0BC01022E02C0759567950A94E2F7D2
:1002D00060FF10C0F89450930D0140930C01789486
:1002E00080910C0180937C0080917A0080648093DF
:1002F0007A000BC0440F551FFA01E15FFE4F1182D7
:1003000010822F5FDACF20E0DACF10920E0108952D
:10031000EFE0F1E020E030E061E070E090E0AB0180
:10032000022E02C0440F551F0A94E2F7DC01A423F9
:10033000B5234A175B0711F0118210822F5F3F4FE0
:1003400032962830310559F708951F920F920FB653
:100350000F9211242F938F939F93EF93FF9380918C
:10036000780020917900E0910C01F0910D01EE0FE1
:10037000FF1FE15FFE4F90E0922B9183808381E02D
:1003800080930E01FF91EF919F918F912F910F908C
:100390000FBE0F901F90189584B1837D84B985B1ED
:1003A0008C6285B9249A279880EC8CBD0895E4E688
:1003B000F0E080818460808324982C9A08952C98A2
:1003C000249AE4E6F0E080818B7F808380EC8CBD12
:1003D000089580911F01882351F01F9902C027982A
:1003E00004C0279A85B1807885B910921F011092B8
:1003F000200108951F920F920FB60F9211248F9330
:100400009F93EF93FF93EEB58091020190910301CA
:100410008130910589F182309105F1F1892B09F044
:1004200040C0E093010180EF8E0F883090F4F0E03F
:10043000EE0FFF1FE151FF4F80818EBDE091010162
:10044000F0E0EE0FFF1FE151FF4F8181809300012B
:1004500010C0E23031F480910B018EBD109200018A
:1004600008C0E33031F41EBC1092000181E080939B
:100470001F0181E090E00BC0809100018EBD809152
:100480000101813011F4E0930B0182E090E0909340
:1004900003018093020105C01EBC1092030110925B
:1004A000020181E080932001FF91EF919F918F9154
:1004B0000F900FBE0F901F9018950E94770010921A
:1004C0000401109207018FEF8093050180930601CC
:1004D00080930801809309017894D3E0CFEFE091F5
:1004E00007018E2F90E08131910508F0C6C0FC0114
:1004F000ED5BFF4F0C944F035C982E9882E0BEC0DA
:1005000080910501811103C083E00E9497008091D2
:10051000060181350CF0BBC0B3C01092090184E024
:10052000ADC0809105018F3F09F0AAC090910901EB
:1005300080910401983160F0823011F485E011C09F
:10054000863011F48DE00DC0883069F48BE009C06D
:10055000823011F481E005C0863081F3883019F4CF
:1005600087E00E949700C09309018AC0C0930601EA
:100570005C9A86E083C04B9B03C087E00E94970093
:100580008091050181117CC083E078C01092080140
:1005900088E074C080910501811105C083E00E944C
:1005A0009700C09308014B9905C08DE00E94970009
:1005B000C09308018091080188320CF06AC060C0C5
:1005C000E89A83B7817F83BF83B7816083BF83B796
:1005D000816083BF889583B78E7F83BF80910A0136
:1005E00081110AC080912001811108C080910E0103
:1005F000811106C0D3E005C0D0E003C0D1E001C046
:10060000D2E08AE03BC0E898DD2311F04B9902C0AC
:1006100087E034C089E032C02E9A8CE02FC04B991D
:100620002FC02E9834C05C988FE028C083B7817F9C
:10063000846083BF26982E9A0E9401010E94D701F0
:10064000E89AF89480910A01811108C083B781600B
:1006500083BF7894889583B78E7F83BF789480E139
:100660000E949700E8980E94DF010E940C012E98DA
:10067000269A1092060181E001C080E00E94970056
:100680000E94E9010E941E0110920A0128CF8DE00C
:10069000F5CF89E00E949700C0930801F1CFEE0FDB
:0E06A000FF1F0590F491E02D0994F894FFCF10
:00000001FF
