:100000000C9454000C94E9000C9480000C94800033
:100010000C9480000C9480000C9480000C94800060
:100020000C9480000C9480000C9480000C94800050
:100030000C9480000C9480000C9480000C94800040
:100040000C94B2000C94F6010C9480000C94800087
:100050000C9480000C948D010C9480000C94800012
:100060000C9480000C948000AE00AC00AE00AE009A
:10007000AE00AC00AE00AC00AE00AC00AE00AC0018
:10008000AC00AC00AE003603720276028302870237
:10009000AC02B102BC02C002D602FC0207030B0391
:1000A0001003100313032F0311241FBECFEFD8E05A
:1000B000DEBFCDBF84B78093210114BE0FB6F89484
:1000C000A895809160008861809360001092600024
:1000D0000FBE11E0A0E0B1E0E8EAF6E002C0059052
:1000E0000D92A230B107D9F721E0A2E0B1E001C042
:1000F0001D92A132B207E1F70E9453020C94520301
:100100000C940000E4E6F0E080818A6C808384E057
:1001100085BD81E080936E0021985298549A269A6A
:10012000209A28988AB184718AB98BB18B6E8BB969
:100130005C982E980E94F8000C94B201F89490916B
:100140000701492F50E0FA013197EF30F10520F413
:10015000EC5CFF4F0C944C039093040180930701D7
:10016000789408951F920F920FB60F9211248F93D7
:1001700080910501880F809305014A9B04C08091FE
:100180000501816003C0809105018E7F8093050188
:100190008091090187FD05C0809109018F5F8093DF
:1001A00009018091060187FD05C0809106018F5FDE
:1001B000809306018091080187FD05C080910801A8
:1001C0008F5F809308018F910F900FBE0F901F904B
:1001D00018951F920F920FB60F9211248F9381E002
:1001E00080930A018F910F900FBE0F901F9018956A
:1001F00087B1807C87B980B7806880BFEFE7F0E087
:10020000808183608083EEE7F0E080818F6380836C
:100210008DE880937A008FEF80930C0108951092FF
:100220007A00E4E6F0E080818160808388B18F63AA
:1002300088B9089588B1807C88B9E4E6F0E08081CF
:100240008E7F80838DE880937A008FEF80930C01FE
:10025000089520910B0180910C0187FF1BC0222380
:10026000C9F080E090E0422F50E0BA01082E02C0B1
:10027000759567950A94E2F760FF03C080930C01BF
:1002800004C001968830910581F780910C0180644B
:1002900080937C0080910D01882339F1211104C0E5
:1002A0008FEF80930C011EC080910C01082E000C72
:1002B000990B019630E0883091058CF4A901082E45
:1002C00002C0559547950A94E2F740FF06C0809317
:1002D0000C01806480937C0005C00196ECCF80E027
:1002E00090E0E9CF10920D010895EEE0F1E040E0DA
:1002F00050E0822F90E09C01042E02C03595279596
:100300000A94E2F720FD02C0118210824F5F5F4F16
:1003100032964830510579F708951F920F920FB623
:100320000F9211242F938F939F93EF93FF938091BC
:10033000780020917900E0910C01EE0FFF0BE25F55
:10034000FE4F90E0922B9183808381E080930D019A
:10035000FF91EF919F918F912F910F900FBE0F9072
:100360001F90189584B1877D84B9229885B18862E1
:1003700085B92A9A249A279880EC8CBD08951CBCD4
:10038000E4E6F0E080818460808324982C9A0895CC
:100390002C98249AE4E6F0E080818B7F8083109291
:1003A000200180EC8CBD08951CBCE4E6F0E0808167
:1003B000846080830895E4E6F0E080818B7F808311
:1003C0001092200180EC8CBD089580911E0188233D
:1003D00051F01F9902C0279804C0279A85B18078F0
:1003E00085B910921E0110921F0108951F920F925D
:1003F0000FB60F9211248F93EF93FF93EEB51A99D6
:1004000047C0809120018130B9F138F0823009F085
:100410003FC01EBC109220013BC0E093030180EF5F
:100420008E0F883080F4F0E0EE0FFF1FE251FF4F97
:1004300080818EBDE0910301F0E0EE0FFF1FE251DD
:10044000FF4F818115C0E23031F480910B018EBDE8
:10045000109202010FC0E33039F41EBC1092020169
:1004600081E080931E0106C0E43021F41EBC83E0CD
:100470008093020181E00AC0809102018EBD8091CB
:100480000301813011F4E0930B0182E0809320019D
:1004900081E080931F01FF91EF918F910F900FBE2C
:1004A0000F901F9018950E948200109204011092E4
:1004B00007018FEF80930501809306018093080167
:1004C000809309017894D3E0CFEFE09107018E2F5C
:1004D00090E08131910508F0CDC0FC01ED5BFF4F4C
:1004E0000C944C035C982E9882E0C5C08091050165
:1004F000811103C083E00E949E0080910601813536
:100500000CF0C2C0BAC01092090184E0B4C080915E
:1005100005018F3F09F0B1C090910901809104015C
:10052000983160F0823011F485E011C0863011F40A
:100530008DE00DC0883069F48BE009C0823011F481
:1005400081E005C0863081F3883019F487E00E948D
:100550009E00C093090191C0C09306015C9A86E099
:100560008AC0199B03C087E00E949E00809105010C
:10057000811183C083E07FC01092080188E07BC0B6
:1005800080910501811105C083E00E949E00C09307
:100590000801199905C08DE00E949E00C0930801D2
:1005A0008091080188320CF071C067C0E89A0E94FF
:1005B000D40183B7817F826083BF83B7816083BFAB
:1005C00083B7816083BF889583B78E7F83BF809117
:1005D0000A0181110AC080911F01811108C0809118
:1005E0000D01811106C0D3E005C0D0E003C0D1E009
:1005F00001C0D2E08AE03FC0D23021F4199B02C092
:1006000089E039C0E8980E94DB0187E034C0289A6D
:100610002E9A8CE030C0199930C028982E9834C09A
:100620005C988FE028C083B7817F846083BF269861
:100630002E9A0E940F010E94BF01E89AF8948091BF
:100640000A01811108C083B7816083BF78948895BF
:1006500083B78E7F83BF789480E10E949E00E898E4
:100660000E94C8010E941A012E98269A1092060133
:1006700081E001C080E00E949E000E94E5010E948E
:10068000290110920A0121CF8DE0F5CF89E00E9467
:100690009E00C0930801F1CFEE0FFF1F0590F4916B
:0806A000E02D0994F894FFCF4E
:0206A8008D00C3
:00000001FF
