:100000000C9443000C94BC000C9455000C945500C7
:100010000C9455000C9455000C9455000C9455000C
:100020000C9455000C9455000C9455000C945500FC
:100030000C9455000C9455000C9455000C945500EC
:100040000C9480000C94D8010C9455000C9455002D
:100050000C9455000C9485010C9455000C9455009B
:100060000C9455000C9455001B037B0284029302F0
:100070009D02AA02B302CB02D202E302EB02EF021C
:10008000EF02F602140311241FBECFEFD8E0DEBF4B
:10009000CDBF21E0A0E0B1E001C01D92AD31B207BB
:1000A000E1F70E943D020C9435030C940000E4E655
:1000B000F0E080818A6C808384E085BD81E080935C
:1000C0006E0053985298549A269A8AB1806E8AB9D3
:1000D00084B1836884B98AB18C7F8AB98BB183601B
:1000E0008BB95C982E980E94C6000C94AC01F894D1
:1000F00090910A019093040180930A0178940895E5
:100100001F920F920FB60F9211248F9380910501C9
:10011000880F809305014A9B04C08091050181608E
:1001200003C0809105018E7F8093050180910901B4
:10013000813029F4809108018F5F809308018091BC
:1001400007018F3F29F0809107018F5F809307019E
:1001500080910B018F3F29F080910B018F5F80937D
:100160000B01299B02C0299801C0299A8F910F90F9
:100170000FBE0F901F9018951F920F920FB60F92FF
:1001800011240F900FBE0F901F90189587B1807C9F
:1001900087B98BE880937A0010920C018FEF9FEF64
:1001A00090930F0180930E0110920D01089510920B
:1001B0007A00E4E6F0E080818160808388B18F631B
:1001C00088B90895E4E6F0E080818E7F80838BE833
:1001D00080937A008FEF9FEF90930F0180930E0131
:1001E00010920D0188B1807C88B9089580910C012E
:1001F000882341F120910E0130910F0137FF22C079
:1002000020E030E0482F50E0BA01022E02C0759580
:1002100067950A94E2F760FF07C0F89420930E01F7
:1002200030930F01789405C02F5F3F4F2630310582
:1002300059F790910E0190937C0090917A00906410
:1002400090937A0090910D01992309F441C0811196
:1002500009C0F8948FEF9FEF90930F0180930E01E8
:1002600078942CC020910E012F5F90E0263020F56D
:10027000422F50E0BC01022E02C0759567950A948A
:10028000E2F760FF10C0F89450930F0140930E0105
:10029000789480910E0180937C0080917A00806434
:1002A00080937A000BC0440F551FFA01E05FFE4FA8
:1002B000118210822F5FDACF20E0DACF10920D0189
:1002C0008091040187508230F8F487E00C94770025
:1002D000E0E1F1E020E030E061E070E090E0AB01CF
:1002E000022E02C0440F551F0A94E2F7DC01A4233A
:1002F000B5234A175B0711F0118210822F5F3F4F21
:1003000032962630310559F708951F920F920FB695
:100310000F9211242F938F939F93EF93FF938091CC
:10032000780020917900E0910E01F0910F01EE0F1D
:10033000FF1FE05FFE4F90E0922B9183808381E06E
:1003400080930D01FF91EF919F918F912F910F90CD
:100350000FBE0F901F90189584B1837D84B985B12D
:100360008C6285B9249A279880EC8CBD0895E4E6C8
:10037000F0E080818460808324982C9A08952C98E2
:10038000249AE4E6F0E080818B7F808380EC8CBD52
:10039000089580911C01882351F01F9902C027986D
:1003A00004C0279A85B1807885B910921C01089500
:1003B0001F920F920FB60F9211248F939F93EF937A
:1003C000FF93EEB580910201909103018130910578
:1003D00089F182309105F1F1892B09F040C0E09359
:1003E000010180EF8E0F863090F4F0E0EE0FFF1FDA
:1003F000E051FF4F80818EBDE0910101F0E0EE0FF2
:10040000FF1FE051FF4F81818093000110C0E23057
:1004100031F480910C018EBD1092000108C0E330D0
:1004200031F41EBC1092000181E080931C0181E038
:1004300090E00BC0809100018EBD80910101813060
:1004400011F4E0930C0182E090E09093030180931B
:10045000020105C01EBC1092030110920201289BEC
:1004600002C0289801C0289AFF91EF919F918F9127
:100470000F900FBE0F901F9018950E94570010927A
:10048000040110920A018FEF8093050180930B0104
:100490007894D1E01AE008E0CFEF86E0F82E94E0FF
:1004A000E92E22E0D22E909105018091090191114F
:1004B00007C0811105C0D0930901109208010EC038
:1004C000813061F4909105019F3F41F490910801C2
:1004D000983110F08093060110920901E0910A0111
:1004E0008E2F90E08F30910508F0A9C0FC01EC5CE4
:1004F000FF4F0C942F032F9A5D985E985F985C983D
:100500002E98D0920A019EC080910601882329F07E
:100510001092060183E00E947700809107018135E7
:1005200008F095C08FC05D9A2F985E985F98C09331
:1005300007015C9AE0920A0185C04B9B03C085E0ED
:100540000E94770080910601882309F47BC01092F5
:1005500006017DC05E9A2F985D985F9810920B01FE
:10056000F0920A016FC080910601882339F0109241
:10057000060189E00E947700C0930B014B9905C0EA
:100580008BE00E947700C0930B0180910B018135B5
:1005900008F05FC057C02F985D985E985F980093F1
:1005A0000A0150C0E89A83B7817F83BF83B7816017
:1005B00083BF83B7816083BF889583B78E7F83BFF6
:1005C000E89885E03DC05F9A2F985D985E982E9AD6
:1005D00010930A0137C04B9935C02E9838C02F9818
:1005E0005D985E985F985C988DE02AC02F985D9822
:1005F0005E985F982898299883B7817F846083BF2D
:1006000026982E9A0E94D7000E94B701E89A83B7D5
:10061000816083BF83B7816083BF889583B78E7FF6
:1006200083BF8EE00E947700E8980E94BF010E947D
:10063000E2002E98269A1092070181E001C080E026
:100640000E9477000E94C9010E94F6002CCF8BE027
:10065000F7CF87E00E947700C0930B01F3CFEE0F36
:0E066000FF1F0590F491E02D0994F894FFCF50
:00000001FF
